{
  "contractName": "OliveNFT",
  "abi": [
    {
      "inputs": [
        {
          "internalType": "string",
          "name": "baseURI",
          "type": "string"
        }
      ],
      "stateMutability": "nonpayable",
      "type": "constructor"
    },
    {
      "anonymous": false,
      "inputs": [
        {
          "indexed": true,
          "internalType": "address",
          "name": "owner",
          "type": "address"
        },
        {
          "indexed": true,
          "internalType": "address",
          "name": "approved",
          "type": "address"
        },
        {
          "indexed": true,
          "internalType": "uint256",
          "name": "tokenId",
          "type": "uint256"
        }
      ],
      "name": "Approval",
      "type": "event"
    },
    {
      "anonymous": false,
      "inputs": [
        {
          "indexed": true,
          "internalType": "address",
          "name": "owner",
          "type": "address"
        },
        {
          "indexed": true,
          "internalType": "address",
          "name": "operator",
          "type": "address"
        },
        {
          "indexed": false,
          "internalType": "bool",
          "name": "approved",
          "type": "bool"
        }
      ],
      "name": "ApprovalForAll",
      "type": "event"
    },
    {
      "anonymous": false,
      "inputs": [
        {
          "indexed": false,
          "internalType": "uint256",
          "name": "max",
          "type": "uint256"
        }
      ],
      "name": "NewMaxElement",
      "type": "event"
    },
    {
      "anonymous": false,
      "inputs": [
        {
          "indexed": false,
          "internalType": "uint256",
          "name": "price",
          "type": "uint256"
        }
      ],
      "name": "NewPriceEvent",
      "type": "event"
    },
    {
      "anonymous": false,
      "inputs": [
        {
          "indexed": true,
          "internalType": "address",
          "name": "previousOwner",
          "type": "address"
        },
        {
          "indexed": true,
          "internalType": "address",
          "name": "newOwner",
          "type": "address"
        }
      ],
      "name": "OwnershipTransferred",
      "type": "event"
    },
    {
      "anonymous": false,
      "inputs": [
        {
          "indexed": false,
          "internalType": "bool",
          "name": "pause",
          "type": "bool"
        }
      ],
      "name": "PauseEvent",
      "type": "event"
    },
    {
      "anonymous": false,
      "inputs": [
        {
          "indexed": true,
          "internalType": "address",
          "name": "from",
          "type": "address"
        },
        {
          "indexed": true,
          "internalType": "address",
          "name": "to",
          "type": "address"
        },
        {
          "indexed": true,
          "internalType": "uint256",
          "name": "tokenId",
          "type": "uint256"
        }
      ],
      "name": "Transfer",
      "type": "event"
    },
    {
      "anonymous": false,
      "inputs": [
        {
          "indexed": true,
          "internalType": "uint256",
          "name": "id",
          "type": "uint256"
        }
      ],
      "name": "welcomeToOlive",
      "type": "event"
    },
    {
      "inputs": [],
      "name": "HIDE_FROM",
      "outputs": [
        {
          "internalType": "uint256",
          "name": "",
          "type": "uint256"
        }
      ],
      "stateMutability": "view",
      "type": "function",
      "constant": true
    },
    {
      "inputs": [],
      "name": "HIDE_TO",
      "outputs": [
        {
          "internalType": "uint256",
          "name": "",
          "type": "uint256"
        }
      ],
      "stateMutability": "view",
      "type": "function",
      "constant": true
    },
    {
      "inputs": [],
      "name": "MAX_ELEMENTS",
      "outputs": [
        {
          "internalType": "uint256",
          "name": "",
          "type": "uint256"
        }
      ],
      "stateMutability": "view",
      "type": "function",
      "constant": true
    },
    {
      "inputs": [],
      "name": "META_REVEAL",
      "outputs": [
        {
          "internalType": "bool",
          "name": "",
          "type": "bool"
        }
      ],
      "stateMutability": "view",
      "type": "function",
      "constant": true
    },
    {
      "inputs": [],
      "name": "PRICE",
      "outputs": [
        {
          "internalType": "uint256",
          "name": "",
          "type": "uint256"
        }
      ],
      "stateMutability": "view",
      "type": "function",
      "constant": true
    },
    {
      "inputs": [],
      "name": "START_AT",
      "outputs": [
        {
          "internalType": "uint256",
          "name": "",
          "type": "uint256"
        }
      ],
      "stateMutability": "view",
      "type": "function",
      "constant": true
    },
    {
      "inputs": [
        {
          "internalType": "address",
          "name": "to",
          "type": "address"
        },
        {
          "internalType": "uint256",
          "name": "tokenId",
          "type": "uint256"
        }
      ],
      "name": "approve",
      "outputs": [],
      "stateMutability": "nonpayable",
      "type": "function"
    },
    {
      "inputs": [
        {
          "internalType": "address",
          "name": "owner",
          "type": "address"
        }
      ],
      "name": "balanceOf",
      "outputs": [
        {
          "internalType": "uint256",
          "name": "",
          "type": "uint256"
        }
      ],
      "stateMutability": "view",
      "type": "function",
      "constant": true
    },
    {
      "inputs": [],
      "name": "baseTokenURI",
      "outputs": [
        {
          "internalType": "string",
          "name": "",
          "type": "string"
        }
      ],
      "stateMutability": "view",
      "type": "function",
      "constant": true
    },
    {
      "inputs": [
        {
          "internalType": "uint256",
          "name": "tokenId",
          "type": "uint256"
        }
      ],
      "name": "getApproved",
      "outputs": [
        {
          "internalType": "address",
          "name": "",
          "type": "address"
        }
      ],
      "stateMutability": "view",
      "type": "function",
      "constant": true
    },
    {
      "inputs": [
        {
          "internalType": "address",
          "name": "owner",
          "type": "address"
        },
        {
          "internalType": "address",
          "name": "operator",
          "type": "address"
        }
      ],
      "name": "isApprovedForAll",
      "outputs": [
        {
          "internalType": "bool",
          "name": "",
          "type": "bool"
        }
      ],
      "stateMutability": "view",
      "type": "function",
      "constant": true
    },
    {
      "inputs": [],
      "name": "name",
      "outputs": [
        {
          "internalType": "string",
          "name": "",
          "type": "string"
        }
      ],
      "stateMutability": "view",
      "type": "function",
      "constant": true
    },
    {
      "inputs": [],
      "name": "owner",
      "outputs": [
        {
          "internalType": "address",
          "name": "",
          "type": "address"
        }
      ],
      "stateMutability": "view",
      "type": "function",
      "constant": true
    },
    {
      "inputs": [
        {
          "internalType": "uint256",
          "name": "tokenId",
          "type": "uint256"
        }
      ],
      "name": "ownerOf",
      "outputs": [
        {
          "internalType": "address",
          "name": "",
          "type": "address"
        }
      ],
      "stateMutability": "view",
      "type": "function",
      "constant": true
    },
    {
      "inputs": [
        {
          "internalType": "uint256",
          "name": "tokenId",
          "type": "uint256"
        }
      ],
      "name": "rawOwnerOf",
      "outputs": [
        {
          "internalType": "address",
          "name": "",
          "type": "address"
        }
      ],
      "stateMutability": "view",
      "type": "function",
      "constant": true
    },
    {
      "inputs": [],
      "name": "renounceOwnership",
      "outputs": [],
      "stateMutability": "nonpayable",
      "type": "function"
    },
    {
      "inputs": [
        {
          "internalType": "address",
          "name": "from",
          "type": "address"
        },
        {
          "internalType": "address",
          "name": "to",
          "type": "address"
        },
        {
          "internalType": "uint256",
          "name": "tokenId",
          "type": "uint256"
        }
      ],
      "name": "safeTransferFrom",
      "outputs": [],
      "stateMutability": "nonpayable",
      "type": "function"
    },
    {
      "inputs": [
        {
          "internalType": "address",
          "name": "from",
          "type": "address"
        },
        {
          "internalType": "address",
          "name": "to",
          "type": "address"
        },
        {
          "internalType": "uint256",
          "name": "tokenId",
          "type": "uint256"
        },
        {
          "internalType": "bytes",
          "name": "_data",
          "type": "bytes"
        }
      ],
      "name": "safeTransferFrom",
      "outputs": [],
      "stateMutability": "nonpayable",
      "type": "function"
    },
    {
      "inputs": [],
      "name": "sampleTokenURI",
      "outputs": [
        {
          "internalType": "string",
          "name": "",
          "type": "string"
        }
      ],
      "stateMutability": "view",
      "type": "function",
      "constant": true
    },
    {
      "inputs": [
        {
          "internalType": "address",
          "name": "operator",
          "type": "address"
        },
        {
          "internalType": "bool",
          "name": "approved",
          "type": "bool"
        }
      ],
      "name": "setApprovalForAll",
      "outputs": [],
      "stateMutability": "nonpayable",
      "type": "function"
    },
    {
      "inputs": [
        {
          "internalType": "bytes4",
          "name": "interfaceId",
          "type": "bytes4"
        }
      ],
      "name": "supportsInterface",
      "outputs": [
        {
          "internalType": "bool",
          "name": "",
          "type": "bool"
        }
      ],
      "stateMutability": "view",
      "type": "function",
      "constant": true
    },
    {
      "inputs": [],
      "name": "symbol",
      "outputs": [
        {
          "internalType": "string",
          "name": "",
          "type": "string"
        }
      ],
      "stateMutability": "view",
      "type": "function",
      "constant": true
    },
    {
      "inputs": [
        {
          "internalType": "uint256",
          "name": "index",
          "type": "uint256"
        }
      ],
      "name": "tokenByIndex",
      "outputs": [
        {
          "internalType": "uint256",
          "name": "",
          "type": "uint256"
        }
      ],
      "stateMutability": "view",
      "type": "function",
      "constant": true
    },
    {
      "inputs": [
        {
          "internalType": "address",
          "name": "owner",
          "type": "address"
        },
        {
          "internalType": "uint256",
          "name": "index",
          "type": "uint256"
        }
      ],
      "name": "tokenOfOwnerByIndex",
      "outputs": [
        {
          "internalType": "uint256",
          "name": "",
          "type": "uint256"
        }
      ],
      "stateMutability": "view",
      "type": "function",
      "constant": true
    },
    {
      "inputs": [],
      "name": "totalSupply",
      "outputs": [
        {
          "internalType": "uint256",
          "name": "",
          "type": "uint256"
        }
      ],
      "stateMutability": "view",
      "type": "function",
      "constant": true
    },
    {
      "inputs": [
        {
          "internalType": "address",
          "name": "from",
          "type": "address"
        },
        {
          "internalType": "address",
          "name": "to",
          "type": "address"
        },
        {
          "internalType": "uint256",
          "name": "tokenId",
          "type": "uint256"
        }
      ],
      "name": "transferFrom",
      "outputs": [],
      "stateMutability": "nonpayable",
      "type": "function"
    },
    {
      "inputs": [
        {
          "internalType": "address",
          "name": "newOwner",
          "type": "address"
        }
      ],
      "name": "transferOwnership",
      "outputs": [],
      "stateMutability": "nonpayable",
      "type": "function"
    },
    {
      "inputs": [
        {
          "internalType": "string",
          "name": "baseURI",
          "type": "string"
        }
      ],
      "name": "setBaseURI",
      "outputs": [],
      "stateMutability": "nonpayable",
      "type": "function"
    },
    {
      "inputs": [
        {
          "internalType": "string",
          "name": "sampleURI",
          "type": "string"
        }
      ],
      "name": "setSampleURI",
      "outputs": [],
      "stateMutability": "nonpayable",
      "type": "function"
    },
    {
      "inputs": [],
      "name": "totalToken",
      "outputs": [
        {
          "internalType": "uint256",
          "name": "",
          "type": "uint256"
        }
      ],
      "stateMutability": "view",
      "type": "function",
      "constant": true
    },
    {
      "inputs": [
        {
          "internalType": "uint256",
          "name": "tokenId",
          "type": "uint256"
        }
      ],
      "name": "tokenURI",
      "outputs": [
        {
          "internalType": "string",
          "name": "",
          "type": "string"
        }
      ],
      "stateMutability": "view",
      "type": "function",
      "constant": true
    },
    {
      "inputs": [
        {
          "internalType": "uint256",
          "name": "_tokenAmount",
          "type": "uint256"
        },
        {
          "internalType": "uint256",
          "name": "_timestamp",
          "type": "uint256"
        },
        {
          "internalType": "bytes",
          "name": "_signature",
          "type": "bytes"
        }
      ],
      "name": "mint",
      "outputs": [],
      "stateMutability": "payable",
      "type": "function",
      "payable": true
    },
    {
      "inputs": [
        {
          "internalType": "address",
          "name": "wallet",
          "type": "address"
        },
        {
          "internalType": "uint256",
          "name": "_tokenAmount",
          "type": "uint256"
        },
        {
          "internalType": "uint256",
          "name": "_timestamp",
          "type": "uint256"
        },
        {
          "internalType": "bytes",
          "name": "_signature",
          "type": "bytes"
        }
      ],
      "name": "signatureWallet",
      "outputs": [
        {
          "internalType": "address",
          "name": "",
          "type": "address"
        }
      ],
      "stateMutability": "pure",
      "type": "function",
      "constant": true
    },
    {
      "inputs": [
        {
          "internalType": "uint256",
          "name": "_count",
          "type": "uint256"
        }
      ],
      "name": "price",
      "outputs": [
        {
          "internalType": "uint256",
          "name": "",
          "type": "uint256"
        }
      ],
      "stateMutability": "view",
      "type": "function",
      "constant": true
    },
    {
      "inputs": [
        {
          "internalType": "address",
          "name": "_owner",
          "type": "address"
        }
      ],
      "name": "walletOfOwner",
      "outputs": [
        {
          "internalType": "uint256[]",
          "name": "",
          "type": "uint256[]"
        }
      ],
      "stateMutability": "view",
      "type": "function",
      "constant": true
    },
    {
      "inputs": [
        {
          "internalType": "bool",
          "name": "_pause",
          "type": "bool"
        }
      ],
      "name": "setPause",
      "outputs": [],
      "stateMutability": "nonpayable",
      "type": "function"
    },
    {
      "inputs": [
        {
          "internalType": "uint256",
          "name": "_price",
          "type": "uint256"
        }
      ],
      "name": "setPrice",
      "outputs": [],
      "stateMutability": "nonpayable",
      "type": "function"
    },
    {
      "inputs": [
        {
          "internalType": "uint256",
          "name": "_max",
          "type": "uint256"
        }
      ],
      "name": "setMaxElement",
      "outputs": [],
      "stateMutability": "nonpayable",
      "type": "function"
    },
    {
      "inputs": [
        {
          "internalType": "bool",
          "name": "_reveal",
          "type": "bool"
        },
        {
          "internalType": "uint256",
          "name": "_from",
          "type": "uint256"
        },
        {
          "internalType": "uint256",
          "name": "_to",
          "type": "uint256"
        }
      ],
      "name": "setMetaReveal",
      "outputs": [],
      "stateMutability": "nonpayable",
      "type": "function"
    },
    {
      "inputs": [
        {
          "internalType": "address[]",
          "name": "_addrs",
          "type": "address[]"
        },
        {
          "internalType": "uint256[]",
          "name": "_values",
          "type": "uint256[]"
        }
      ],
      "name": "withdrawFor",
      "outputs": [],
      "stateMutability": "nonpayable",
      "type": "function"
    },
    {
      "inputs": [
        {
          "internalType": "address[]",
          "name": "_addrs",
          "type": "address[]"
        },
        {
          "internalType": "uint256[]",
          "name": "_tokenAmounts",
          "type": "uint256[]"
        }
      ],
      "name": "giftMint",
      "outputs": [],
      "stateMutability": "nonpayable",
      "type": "function"
    }
  ],
  "bytecode": "0x60806040526103e7600b81905567013fbe85edc90000600c55600d8054600160ff1991821681179092556010805490911690556011556012553480156200004557600080fd5b50604051620035ef380380620035ef83398101604081905262000068916200026d565b60408051808201825260058152644f6c69766560d81b60208083019182528351808501909452600884526713db1a5d9953919560c21b908401528151919291620000b591600091620001c7565b508051620000cb906001906020840190620001c7565b505050620000e8620000e2620000fa60201b60201c565b620000fe565b620000f38162000150565b50620003c4565b3390565b600a80546001600160a01b038381166001600160a01b0319831681179093556040519116919082907f8be0079c531659141344cd1fd0a4f28419497f9722a3daafe3b4186f6b6457e090600090a35050565b6200015a620000fa565b6001600160a01b03166200016d620001b8565b6001600160a01b0316146200019f5760405162461bcd60e51b815260040162000196906200033c565b60405180910390fd5b8051620001b490600f906020840190620001c7565b5050565b600a546001600160a01b031690565b828054620001d59062000371565b90600052602060002090601f016020900481019282620001f9576000855562000244565b82601f106200021457805160ff191683800117855562000244565b8280016001018555821562000244579182015b828111156200024457825182559160200191906001019062000227565b506200025292915062000256565b5090565b5b8082111562000252576000815560010162000257565b6000602080838503121562000280578182fd5b82516001600160401b038082111562000297578384fd5b818501915085601f830112620002ab578384fd5b815181811115620002c057620002c0620003ae565b604051601f8201601f1916810185018381118282101715620002e657620002e6620003ae565b6040528181528382018501881015620002fd578586fd5b8592505b8183101562000320578383018501518184018601529184019162000301565b818311156200033157858583830101525b979650505050505050565b6020808252818101527f4f776e61626c653a2063616c6c6572206973206e6f7420746865206f776e6572604082015260600190565b6002810460018216806200038657607f821691505b60208210811415620003a857634e487b7160e01b600052602260045260246000fd5b50919050565b634e487b7160e01b600052604160045260246000fd5b61321b80620003d46000396000f3fe6080604052600436106102465760003560e01c806370a0823111610139578063b8ea3cb0116100b6578063c87b56dd1161007a578063c87b56dd1461065b578063d547cfb71461067b578063dfb1913d14610690578063e985e9c5146106b0578063f2320568146106d0578063f2fde38b146106f057610246565b8063b8ea3cb0146105dc578063bc13a688146105fc578063bedb86fb14610611578063bf7b766d14610631578063c74270931461064657610246565b80638da5cb5b116100fd5780638da5cb5b1461055257806391b7f5ed1461056757806395d89b4114610587578063a22cb4651461059c578063b88d4fde146105bc57610246565b806370a08231146104c8578063715018a6146104e85780637f81be69146104fd57806389ece9411461051d5780638d859f3e1461053d57610246565b806326a49e37116101c75780634f6ccce71161018b5780634f6ccce71461043357806355f804b314610453578063626be567146104735780636352211e146104885780636ea5d178146104a857610246565b806326a49e37146103915780632f745c59146103b15780633502a716146103d157806342842e0e146103e6578063438b63001461040657610246565b8063103c4b531161020e578063103c4b531461030557806312c2449f1461031a57806318160ddd1461033a5780631ec858ec1461035c57806323b872dd1461037157610246565b806301ffc9a71461024b57806306fdde0314610281578063081812fc146102a357806308dc9f42146102d0578063095ea7b3146102e5575b600080fd5b34801561025757600080fd5b5061026b6102663660046126e4565b610710565b60405161027891906128dc565b60405180910390f35b34801561028d57600080fd5b5061029661073d565b6040516102789190612905565b3480156102af57600080fd5b506102c36102be366004612762565b6107cf565b6040516102789190612826565b6102e36102de36600461277a565b61081b565b005b3480156102f157600080fd5b506102e361030036600461256a565b6109a3565b34801561031157600080fd5b50610296610a3b565b34801561032657600080fd5b506102e36103353660046126b2565b610ac9565b34801561034657600080fd5b5061034f610b22565b604051610278919061301e565b34801561036857600080fd5b5061034f610b28565b34801561037d57600080fd5b506102e361038c3660046124a0565b610b2e565b34801561039d57600080fd5b5061034f6103ac366004612762565b610b66565b3480156103bd57600080fd5b5061034f6103cc36600461256a565b610b76565b3480156103dd57600080fd5b5061034f610bc8565b3480156103f257600080fd5b506102e36104013660046124a0565b610bce565b34801561041257600080fd5b50610426610421366004612454565b610be9565b6040516102789190612898565b34801561043f57600080fd5b5061034f61044e366004612762565b610ca7565b34801561045f57600080fd5b506102e361046e36600461271c565b610d02565b34801561047f57600080fd5b5061034f610d58565b34801561049457600080fd5b506102c36104a3366004612762565b610d69565b3480156104b457600080fd5b506102e36104c33660046125da565b610d9e565b3480156104d457600080fd5b5061034f6104e3366004612454565b610f11565b3480156104f457600080fd5b506102e3610f55565b34801561050957600080fd5b506102c3610518366004612762565b610fa0565b34801561052957600080fd5b506102e361053836600461271c565b610fbb565b34801561054957600080fd5b5061034f61100d565b34801561055e57600080fd5b506102c3611013565b34801561057357600080fd5b506102e3610582366004612762565b611022565b34801561059357600080fd5b506102966110a1565b3480156105a857600080fd5b506102e36105b7366004612541565b6110b0565b3480156105c857600080fd5b506102e36105d73660046124db565b61117e565b3480156105e857600080fd5b506102e36105f7366004612762565b6111bd565b34801561060857600080fd5b5061026b611231565b34801561061d57600080fd5b506102e361062c366004612698565b61123a565b34801561063d57600080fd5b5061034f6112bd565b34801561065257600080fd5b5061034f6112c2565b34801561066757600080fd5b50610296610676366004612762565b6112c8565b34801561068757600080fd5b50610296611405565b34801561069c57600080fd5b506102e36106ab3660046125da565b611412565b3480156106bc57600080fd5b5061026b6106cb36600461246e565b611513565b3480156106dc57600080fd5b506102c36106eb366004612593565b611541565b3480156106fc57600080fd5b506102e361070b366004612454565b611582565b60006001600160e01b0319821663780e9d6360e01b14806107355750610735826115f3565b90505b919050565b60606000805461074c90613103565b80601f016020809104026020016040519081016040528092919081815260200182805461077890613103565b80156107c55780601f1061079a576101008083540402835291602001916107c5565b820191906000526020600020905b8154815290600101906020018083116107a857829003601f168201915b5050505050905090565b60006107da82611633565b6107ff5760405162461bcd60e51b81526004016107f690612d63565b60405180910390fd5b506000908152600460205260409020546001600160a01b031690565b600b54610826610d58565b11156108445760405162461bcd60e51b81526004016107f690612ffc565b600d5460ff16156108675760405162461bcd60e51b81526004016107f690612ee8565b6000610871610d58565b905060038411156108945760405162461bcd60e51b81526004016107f690612b5d565b600b546108a18583613075565b11156108bf5760405162461bcd60e51b81526004016107f690612b5d565b6108c884610b66565b3410156108e75760405162461bcd60e51b81526004016107f690612e7c565b60006108f1611650565b9050600061090182878787611541565b905061090b611013565b6001600160a01b0316816001600160a01b03161461093b5760405162461bcd60e51b81526004016107f690612bcc565b610946601e866130c0565b4210156109655760405162461bcd60e51b81526004016107f690612f10565b60015b868160ff161161099a576109888361098360ff841687613075565b611654565b8061099281613159565b915050610968565b50505050505050565b60006109ae82610d69565b9050806001600160a01b0316836001600160a01b031614156109e25760405162461bcd60e51b81526004016107f690612ea7565b806001600160a01b03166109f4611650565b6001600160a01b03161480610a105750610a10816106cb611650565b610a2c5760405162461bcd60e51b81526004016107f690612bfc565b610a368383611697565b505050565b60138054610a4890613103565b80601f0160208091040260200160405190810160405280929190818152602001828054610a7490613103565b8015610ac15780601f10610a9657610100808354040283529160200191610ac1565b820191906000526020600020905b815481529060010190602001808311610aa457829003601f168201915b505050505081565b610ad1611650565b6001600160a01b0316610ae2611013565b6001600160a01b031614610b085760405162461bcd60e51b81526004016107f690612daf565b6010805460ff191693151593909317909255601155601255565b60085490565b60115481565b610b3f610b39611650565b82611705565b610b5b5760405162461bcd60e51b81526004016107f690612f5f565b610a36838383611782565b600c5460009061073590836118af565b6000610b8183610f11565b8210610b9f5760405162461bcd60e51b81526004016107f690612986565b506001600160a01b03919091166000908152600660209081526040808320938352929052205490565b600b5481565b610a368383836040518060200160405280600081525061117e565b60606000610bf683610f11565b905060008167ffffffffffffffff811115610c2157634e487b7160e01b600052604160045260246000fd5b604051908082528060200260200182016040528015610c4a578160200160208202803683370190505b50905060005b82811015610c9f57610c628582610b76565b828281518110610c8257634e487b7160e01b600052603260045260246000fd5b602090810291909101015280610c978161313e565b915050610c50565b509392505050565b6000610cb1610b22565b8210610ccf5760405162461bcd60e51b81526004016107f690612fb0565b60088281548110610cf057634e487b7160e01b600052603260045260246000fd5b90600052602060002001549050919050565b610d0a611650565b6001600160a01b0316610d1b611013565b6001600160a01b031614610d415760405162461bcd60e51b81526004016107f690612daf565b8051610d5490600f9060208401906122b1565b5050565b6000610d64600e6118bb565b905090565b6000818152600260205260408120546001600160a01b0316806107355760405162461bcd60e51b81526004016107f690612ca3565b610da6611650565b6001600160a01b0316610db7611013565b6001600160a01b031614610ddd5760405162461bcd60e51b81526004016107f690612daf565b600080610de8610d58565b905060005b8451811015610e3d57838181518110610e1657634e487b7160e01b600052603260045260246000fd5b602002602001015183610e299190613075565b925080610e358161313e565b915050610ded565b50600b54610e4b8383613075565b1115610e695760405162461bcd60e51b81526004016107f690612b5d565b60005b8451811015610f0a5760005b848281518110610e9857634e487b7160e01b600052603260045260246000fd5b6020026020010151811015610ef75782610eb18161313e565b935050610ee5868381518110610ed757634e487b7160e01b600052603260045260246000fd5b602002602001015184611654565b80610eef8161313e565b915050610e78565b5080610f028161313e565b915050610e6c565b5050505050565b60006001600160a01b038216610f395760405162461bcd60e51b81526004016107f690612c59565b506001600160a01b031660009081526003602052604090205490565b610f5d611650565b6001600160a01b0316610f6e611013565b6001600160a01b031614610f945760405162461bcd60e51b81526004016107f690612daf565b610f9e60006118bf565b565b6000908152600260205260409020546001600160a01b031690565b610fc3611650565b6001600160a01b0316610fd4611013565b6001600160a01b031614610ffa5760405162461bcd60e51b81526004016107f690612daf565b8051610d549060139060208401906122b1565b600c5481565b600a546001600160a01b031690565b61102a611650565b6001600160a01b031661103b611013565b6001600160a01b0316146110615760405162461bcd60e51b81526004016107f690612daf565b600c8190556040517f0e4af3870af723022c49a1ebcf7379a14fa7732c2dc92925407b8d219116a26b9061109690839061301e565b60405180910390a150565b60606001805461074c90613103565b6110b8611650565b6001600160a01b0316826001600160a01b031614156110e95760405162461bcd60e51b81526004016107f690612ae4565b80600560006110f6611650565b6001600160a01b03908116825260208083019390935260409182016000908120918716808252919093529120805460ff19169215159290921790915561113a611650565b6001600160a01b03167f17307eab39ab6107e8899845ad3d59bd9653f200f220920489ca2b5937696c318360405161117291906128dc565b60405180910390a35050565b61118f611189611650565b83611705565b6111ab5760405162461bcd60e51b81526004016107f690612f5f565b6111b784848484611911565b50505050565b6111c5611650565b6001600160a01b03166111d6611013565b6001600160a01b0316146111fc5760405162461bcd60e51b81526004016107f690612daf565b600b8190556040517fc83d13efd20405bd69a6e26fd71d067b31246b9fe9ad2b945536dd1770330d489061109690839061301e565b60105460ff1681565b611242611650565b6001600160a01b0316611253611013565b6001600160a01b0316146112795760405162461bcd60e51b81526004016107f690612daf565b600d805460ff191682151517908190556040517f10e1c3fcaff06b68391033547e8f9bb8067d7c4a2e32659b0629153814d242d3916110969160ff909116906128dc565b600181565b60125481565b60606112d382611633565b6112ef5760405162461bcd60e51b81526004016107f690612e2d565b60105460ff1615801561130457506011548210155b801561131257506012548211155b156113a9576013805461132490613103565b80601f016020809104026020016040519081016040528092919081815260200182805461135090613103565b801561139d5780601f106113725761010080835404028352916020019161139d565b820191906000526020600020905b81548152906001019060200180831161138057829003601f168201915b50505050509050610738565b60006113b3611944565b905060008151116113d357604051806020016040528060008152506113fe565b806113dd84611953565b6040516020016113ee9291906127f4565b6040516020818303038152906040525b9392505050565b600f8054610a4890613103565b61141a611650565b6001600160a01b031661142b611013565b6001600160a01b0316146114515760405162461bcd60e51b81526004016107f690612daf565b478061145c57600080fd5b815183511461146a57600080fd5b60008060005b855181101561150b5785818151811061149957634e487b7160e01b600052603260045260246000fd5b602002602001015192508481815181106114c357634e487b7160e01b600052603260045260246000fd5b6020026020010151915060648211156114db57600080fd5b6114f9836114f460646114ee88876118af565b90611a6e565b611a7a565b806115038161313e565b915050611470565b505050505050565b6001600160a01b03918216600090815260056020908152604080832093909416825291909152205460ff1690565b600061157785858560405160200161155b93929190612877565b6040516020818303038152906040528051906020012083611af6565b90505b949350505050565b61158a611650565b6001600160a01b031661159b611013565b6001600160a01b0316146115c15760405162461bcd60e51b81526004016107f690612daf565b6001600160a01b0381166115e75760405162461bcd60e51b81526004016107f690612a23565b6115f0816118bf565b50565b60006001600160e01b031982166380ac58cd60e01b148061162457506001600160e01b03198216635b5e139f60e01b145b80610735575061073582611b12565b6000908152600260205260409020546001600160a01b0316151590565b3390565b61165e600e611b2b565b6116688282611b34565b60405181907f62683775d1b8ee5fb0be401db3978e6fa67bcc4b4e46a774a201332be67caae790600090a25050565b600081815260046020526040902080546001600160a01b0319166001600160a01b03841690811790915581906116cc82610d69565b6001600160a01b03167f8c5be1e5ebec7d5bd14f71427d1e84f3dd0314c0f7b2291e5b200ac8c7c3b92560405160405180910390a45050565b600061171082611633565b61172c5760405162461bcd60e51b81526004016107f690612b80565b600061173783610d69565b9050806001600160a01b0316846001600160a01b031614806117725750836001600160a01b0316611767846107cf565b6001600160a01b0316145b8061157a575061157a8185611513565b826001600160a01b031661179582610d69565b6001600160a01b0316146117bb5760405162461bcd60e51b81526004016107f690612de4565b6001600160a01b0382166117e15760405162461bcd60e51b81526004016107f690612aa0565b6117ec838383611b4e565b6117f7600082611697565b6001600160a01b03831660009081526003602052604081208054600192906118209084906130c0565b90915550506001600160a01b038216600090815260036020526040812080546001929061184e908490613075565b909155505060008181526002602052604080822080546001600160a01b0319166001600160a01b0386811691821790925591518493918716917fddf252ad1be2c89b69c2b068fc378daa952ba7f163c4a11628f55a4df523b3ef91a4505050565b60006113fe82846130a1565b5490565b600a80546001600160a01b038381166001600160a01b0319831681179093556040519116919082907f8be0079c531659141344cd1fd0a4f28419497f9722a3daafe3b4186f6b6457e090600090a35050565b61191c848484611782565b61192884848484611bd7565b6111b75760405162461bcd60e51b81526004016107f6906129d1565b6060600f805461074c90613103565b60608161197857506040805180820190915260018152600360fc1b6020820152610738565b8160005b81156119a2578061198c8161313e565b915061199b9050600a8361308d565b915061197c565b60008167ffffffffffffffff8111156119cb57634e487b7160e01b600052604160045260246000fd5b6040519080825280601f01601f1916602001820160405280156119f5576020820181803683370190505b5090505b841561157a57611a0a6001836130c0565b9150611a17600a86613179565b611a22906030613075565b60f81b818381518110611a4557634e487b7160e01b600052603260045260246000fd5b60200101906001600160f81b031916908160001a905350611a67600a8661308d565b94506119f9565b60006113fe828461308d565b6000826001600160a01b031682604051611a9390612823565b60006040518083038185875af1925050503d8060008114611ad0576040519150601f19603f3d011682016040523d82523d6000602084013e611ad5565b606091505b5050905080610a365760405162461bcd60e51b81526004016107f690612f35565b6000806000611b058585611cef565b91509150610c9f81611d5f565b6001600160e01b031981166301ffc9a760e01b14919050565b80546001019055565b610d54828260405180602001604052806000815250611e8c565b611b59838383610a36565b6001600160a01b038316611b7557611b7081611ebf565b611b98565b816001600160a01b0316836001600160a01b031614611b9857611b988382611f03565b6001600160a01b038216611bb457611baf81611fa0565b610a36565b826001600160a01b0316826001600160a01b031614610a3657610a368282612079565b6000611beb846001600160a01b03166120bd565b15611ce757836001600160a01b031663150b7a02611c07611650565b8786866040518563ffffffff1660e01b8152600401611c29949392919061283a565b602060405180830381600087803b158015611c4357600080fd5b505af1925050508015611c73575060408051601f3d908101601f19168201909252611c7091810190612700565b60015b611ccd573d808015611ca1576040519150601f19603f3d011682016040523d82523d6000602084013e611ca6565b606091505b508051611cc55760405162461bcd60e51b81526004016107f6906129d1565b805181602001fd5b6001600160e01b031916630a85bd0160e11b14905061157a565b50600161157a565b600080825160411415611d265760208301516040840151606085015160001a611d1a878285856120c3565b94509450505050611d58565b825160401415611d505760208301516040840151611d458683836121a3565b935093505050611d58565b506000905060025b9250929050565b6000816004811115611d8157634e487b7160e01b600052602160045260246000fd5b1415611d8c576115f0565b6001816004811115611dae57634e487b7160e01b600052602160045260246000fd5b1415611dcc5760405162461bcd60e51b81526004016107f690612918565b6002816004811115611dee57634e487b7160e01b600052602160045260246000fd5b1415611e0c5760405162461bcd60e51b81526004016107f69061294f565b6003816004811115611e2e57634e487b7160e01b600052602160045260246000fd5b1415611e4c5760405162461bcd60e51b81526004016107f690612b1b565b6004816004811115611e6e57634e487b7160e01b600052602160045260246000fd5b14156115f05760405162461bcd60e51b81526004016107f690612cec565b611e9683836121d2565b611ea36000848484611bd7565b610a365760405162461bcd60e51b81526004016107f6906129d1565b600880546000838152600960205260408120829055600182018355919091527ff3f7a9fe364faab93b216da50a3214154f22a0a2b415b23a84c8169e8b636ee30155565b60006001611f1084610f11565b611f1a91906130c0565b600083815260076020526040902054909150808214611f6d576001600160a01b03841660009081526006602090815260408083208584528252808320548484528184208190558352600790915290208190555b5060009182526007602090815260408084208490556001600160a01b039094168352600681528383209183525290812055565b600854600090611fb2906001906130c0565b60008381526009602052604081205460088054939450909284908110611fe857634e487b7160e01b600052603260045260246000fd5b90600052602060002001549050806008838154811061201757634e487b7160e01b600052603260045260246000fd5b600091825260208083209091019290925582815260099091526040808220849055858252812055600880548061205d57634e487b7160e01b600052603160045260246000fd5b6001900381819060005260206000200160009055905550505050565b600061208483610f11565b6001600160a01b039093166000908152600660209081526040808320868452825280832085905593825260079052919091209190915550565b3b151590565b6000807f7fffffffffffffffffffffffffffffff5d576e7357a4501ddfe92f46681b20a08311156120fa575060009050600361219a565b8460ff16601b1415801561211257508460ff16601c14155b15612123575060009050600461219a565b60006001878787876040516000815260200160405260405161214894939291906128e7565b6020604051602081039080840390855afa15801561216a573d6000803e3d6000fd5b5050604051601f1901519150506001600160a01b0381166121935760006001925092505061219a565b9150600090505b94509492505050565b6000806001600160ff1b03831660ff84901c601b016121c4878288856120c3565b935093505050935093915050565b6001600160a01b0382166121f85760405162461bcd60e51b81526004016107f690612d2e565b61220181611633565b1561221e5760405162461bcd60e51b81526004016107f690612a69565b61222a60008383611b4e565b6001600160a01b0382166000908152600360205260408120805460019290612253908490613075565b909155505060008181526002602052604080822080546001600160a01b0319166001600160a01b03861690811790915590518392907fddf252ad1be2c89b69c2b068fc378daa952ba7f163c4a11628f55a4df523b3ef908290a45050565b8280546122bd90613103565b90600052602060002090601f0160209004810192826122df5760008555612325565b82601f106122f857805160ff1916838001178555612325565b82800160010185558215612325579182015b8281111561232557825182559160200191906001019061230a565b50612331929150612335565b5090565b5b808211156123315760008155600101612336565b600067ffffffffffffffff831115612364576123646131b9565b612377601f8401601f1916602001613027565b905082815283838301111561238b57600080fd5b828260208301376000602084830101529392505050565b80356001600160a01b038116811461073857600080fd5b600082601f8301126123c9578081fd5b813560206123de6123d983613051565b613027565b82815281810190858301838502870184018810156123fa578586fd5b855b85811015612418578135845292840192908401906001016123fc565b5090979650505050505050565b8035801515811461073857600080fd5b600082601f830112612445578081fd5b6113fe8383356020850161234a565b600060208284031215612465578081fd5b6113fe826123a2565b60008060408385031215612480578081fd5b612489836123a2565b9150612497602084016123a2565b90509250929050565b6000806000606084860312156124b4578081fd5b6124bd846123a2565b92506124cb602085016123a2565b9150604084013590509250925092565b600080600080608085870312156124f0578081fd5b6124f9856123a2565b9350612507602086016123a2565b925060408501359150606085013567ffffffffffffffff811115612529578182fd5b61253587828801612435565b91505092959194509250565b60008060408385031215612553578182fd5b61255c836123a2565b915061249760208401612425565b6000806040838503121561257c578182fd5b612585836123a2565b946020939093013593505050565b600080600080608085870312156125a8578384fd5b6125b1856123a2565b93506020850135925060408501359150606085013567ffffffffffffffff811115612529578182fd5b600080604083850312156125ec578182fd5b823567ffffffffffffffff80821115612603578384fd5b818501915085601f830112612616578384fd5b813560206126266123d983613051565b82815281810190858301838502870184018b1015612642578889fd5b8896505b8487101561266b57612657816123a2565b835260019690960195918301918301612646565b5096505086013592505080821115612681578283fd5b5061268e858286016123b9565b9150509250929050565b6000602082840312156126a9578081fd5b6113fe82612425565b6000806000606084860312156126c6578081fd5b6126cf84612425565b95602085013595506040909401359392505050565b6000602082840312156126f5578081fd5b81356113fe816131cf565b600060208284031215612711578081fd5b81516113fe816131cf565b60006020828403121561272d578081fd5b813567ffffffffffffffff811115612743578182fd5b8201601f81018413612753578182fd5b61157a8482356020840161234a565b600060208284031215612773578081fd5b5035919050565b60008060006060848603121561278e578081fd5b8335925060208401359150604084013567ffffffffffffffff8111156127b2578182fd5b6127be86828701612435565b9150509250925092565b600081518084526127e08160208601602086016130d7565b601f01601f19169290920160200192915050565b600083516128068184602088016130d7565b83519083019061281a8183602088016130d7565b01949350505050565b90565b6001600160a01b0391909116815260200190565b6001600160a01b038581168252841660208201526040810183905260806060820181905260009061286d908301846127c8565b9695505050505050565b6001600160a01b039390931683526020830191909152604082015260600190565b6020808252825182820181905260009190848201906040850190845b818110156128d0578351835292840192918401916001016128b4565b50909695505050505050565b901515815260200190565b93845260ff9290921660208401526040830152606082015260800190565b6000602082526113fe60208301846127c8565b60208082526018908201527f45434453413a20696e76616c6964207369676e61747572650000000000000000604082015260600190565b6020808252601f908201527f45434453413a20696e76616c6964207369676e6174757265206c656e67746800604082015260600190565b6020808252602b908201527f455243373231456e756d657261626c653a206f776e657220696e646578206f7560408201526a74206f6620626f756e647360a81b606082015260800190565b60208082526032908201527f4552433732313a207472616e7366657220746f206e6f6e20455243373231526560408201527131b2b4bb32b91034b6b83632b6b2b73a32b960711b606082015260800190565b60208082526026908201527f4f776e61626c653a206e6577206f776e657220697320746865207a65726f206160408201526564647265737360d01b606082015260800190565b6020808252601c908201527f4552433732313a20746f6b656e20616c7265616479206d696e74656400000000604082015260600190565b60208082526024908201527f4552433732313a207472616e7366657220746f20746865207a65726f206164646040820152637265737360e01b606082015260800190565b60208082526019908201527f4552433732313a20617070726f766520746f2063616c6c657200000000000000604082015260600190565b60208082526022908201527f45434453413a20696e76616c6964207369676e6174757265202773272076616c604082015261756560f01b606082015260800190565b60208082526009908201526813585e081b1a5b5a5d60ba1b604082015260600190565b6020808252602c908201527f4552433732313a206f70657261746f7220717565727920666f72206e6f6e657860408201526b34b9ba32b73a103a37b5b2b760a11b606082015260800190565b602080825260169082015275139bdd08185d5d1a1bdc9a5e9959081d1bc81b5a5b9d60521b604082015260600190565b60208082526038908201527f4552433732313a20617070726f76652063616c6c6572206973206e6f74206f7760408201527f6e6572206e6f7220617070726f76656420666f7220616c6c0000000000000000606082015260800190565b6020808252602a908201527f4552433732313a2062616c616e636520717565727920666f7220746865207a65604082015269726f206164647265737360b01b606082015260800190565b60208082526029908201527f4552433732313a206f776e657220717565727920666f72206e6f6e657869737460408201526832b73a103a37b5b2b760b91b606082015260800190565b60208082526022908201527f45434453413a20696e76616c6964207369676e6174757265202776272076616c604082015261756560f01b606082015260800190565b6020808252818101527f4552433732313a206d696e7420746f20746865207a65726f2061646472657373604082015260600190565b6020808252602c908201527f4552433732313a20617070726f76656420717565727920666f72206e6f6e657860408201526b34b9ba32b73a103a37b5b2b760a11b606082015260800190565b6020808252818101527f4f776e61626c653a2063616c6c6572206973206e6f7420746865206f776e6572604082015260600190565b60208082526029908201527f4552433732313a207472616e73666572206f6620746f6b656e2074686174206960408201526839903737ba1037bbb760b91b606082015260800190565b6020808252602f908201527f4552433732314d657461646174613a2055524920717565727920666f72206e6f60408201526e3732bc34b9ba32b73a103a37b5b2b760891b606082015260800190565b60208082526011908201527056616c75652062656c6f7720707269636560781b604082015260600190565b60208082526021908201527f4552433732313a20617070726f76616c20746f2063757272656e74206f776e656040820152603960f91b606082015260800190565b6020808252600e908201526d29b0b632b9903737ba1037b832b760911b604082015260600190565b6020808252600b908201526a4f7574206f662074696d6560a81b604082015260600190565b60208082526010908201526f2a3930b739b332b9103330b4b632b21760811b604082015260600190565b60208082526031908201527f4552433732313a207472616e736665722063616c6c6572206973206e6f74206f6040820152701ddb995c881b9bdc88185c1c1c9bdd9959607a1b606082015260800190565b6020808252602c908201527f455243373231456e756d657261626c653a20676c6f62616c20696e646578206f60408201526b7574206f6620626f756e647360a01b606082015260800190565b602080825260089082015267536f6c646f75742160c01b604082015260600190565b90815260200190565b60405181810167ffffffffffffffff81118282101715613049576130496131b9565b604052919050565b600067ffffffffffffffff82111561306b5761306b6131b9565b5060209081020190565b600082198211156130885761308861318d565b500190565b60008261309c5761309c6131a3565b500490565b60008160001904831182151516156130bb576130bb61318d565b500290565b6000828210156130d2576130d261318d565b500390565b60005b838110156130f25781810151838201526020016130da565b838111156111b75750506000910152565b60028104600182168061311757607f821691505b6020821081141561313857634e487b7160e01b600052602260045260246000fd5b50919050565b60006000198214156131525761315261318d565b5060010190565b600060ff821660ff8114156131705761317061318d565b60010192915050565b600082613188576131886131a3565b500690565b634e487b7160e01b600052601160045260246000fd5b634e487b7160e01b600052601260045260246000fd5b634e487b7160e01b600052604160045260246000fd5b6001600160e01b0319811681146115f057600080fdfea26469706673582212206db8ab0481821651a3f7ed5d6174e73f5ce8165212ec305a061df123c7bba49664736f6c63430008000033",
  "immutableReferences": {},
  "source": "// SPDX-License-Identifier: MIT\r\npragma solidity ^0.8.0;\r\n\r\nimport \"./ERC721Enumerable.sol\";\r\nimport \"@openzeppelin/contracts/access/Ownable.sol\";\r\nimport \"@openzeppelin/contracts/utils/math/SafeMath.sol\";\r\nimport \"@openzeppelin/contracts/utils/Counters.sol\";\r\nimport \"@openzeppelin/contracts/utils/cryptography/ECDSA.sol\";\r\n\r\n// @author: olive\r\n\r\ncontract OliveNFT is ERC721Enumerable, Ownable {\r\n    using SafeMath for uint256;\r\n    using Counters for Counters.Counter;\r\n    using Strings for uint256;\r\n\r\n    uint256 public MAX_ELEMENTS = 999;\r\n    uint256 public PRICE = 0.09 ether;\r\n    uint256 public constant START_AT = 1;\r\n\r\n    bool private PAUSE = true;\r\n\r\n    Counters.Counter private _tokenIdTracker;\r\n\r\n    string public baseTokenURI;\r\n\r\n    bool public META_REVEAL = false;\r\n    uint256 public HIDE_FROM = 1;\r\n    uint256 public HIDE_TO = 999;\r\n    string public sampleTokenURI;\r\n\r\n    event PauseEvent(bool pause);\r\n    event welcomeToOlive(uint256 indexed id);\r\n    event NewPriceEvent(uint256 price);\r\n    event NewMaxElement(uint256 max);\r\n\r\n    constructor(string memory baseURI) ERC721(\"Olive\", \"OliveNFT\"){\r\n        setBaseURI(baseURI);\r\n    }\r\n\r\n    modifier saleIsOpen {\r\n        require(totalToken() <= MAX_ELEMENTS, \"Soldout!\");\r\n        require(!PAUSE, \"Sales not open\");\r\n        _;\r\n    }\r\n\r\n    function _baseURI() internal view virtual override returns (string memory) {\r\n        return baseTokenURI;\r\n    }\r\n\r\n    function setBaseURI(string memory baseURI) public onlyOwner {\r\n        baseTokenURI = baseURI;\r\n    }\r\n\r\n    function setSampleURI(string memory sampleURI) public onlyOwner {\r\n        sampleTokenURI = sampleURI;\r\n    }\r\n\r\n    function totalToken() public view returns (uint256) {\r\n        return _tokenIdTracker.current();\r\n    }\r\n\r\n    function tokenURI(uint256 tokenId) public view virtual override returns (string memory) {\r\n        require(_exists(tokenId), \"ERC721Metadata: URI query for nonexistent token\");\r\n\r\n        if(!META_REVEAL && tokenId >= HIDE_FROM && tokenId <= HIDE_TO) \r\n            return sampleTokenURI;\r\n        \r\n        string memory baseURI = _baseURI();\r\n        return bytes(baseURI).length > 0 ? string(abi.encodePacked(baseURI, tokenId.toString())) : \"\";\r\n    }\r\n\r\n    function mint(uint256 _tokenAmount, uint256 _timestamp, bytes memory _signature) public payable saleIsOpen {\r\n\r\n        uint256 total = totalToken();\r\n        require(_tokenAmount <= 3, \"Max limit\");\r\n        require(total + _tokenAmount <= MAX_ELEMENTS, \"Max limit\");\r\n        require(msg.value >= price(_tokenAmount), \"Value below price\");\r\n\r\n        address wallet = _msgSender();\r\n\r\n        address signerOwner = signatureWallet(wallet,_tokenAmount,_timestamp,_signature);\r\n        require(signerOwner == owner(), \"Not authorized to mint\");\r\n\r\n        require(block.timestamp >= _timestamp - 30, \"Out of time\");\r\n\r\n        for(uint8 i = 1; i <= _tokenAmount; i++){\r\n            _mintAnElement(wallet, total + i);\r\n        }\r\n\r\n    }\r\n\r\n    function signatureWallet(address wallet, uint256 _tokenAmount, uint256 _timestamp, bytes memory _signature) public pure returns (address){\r\n\r\n        return ECDSA.recover(keccak256(abi.encode(wallet, _tokenAmount, _timestamp)), _signature);\r\n\r\n    }\r\n\r\n    function _mintAnElement(address _to, uint256 _tokenId) private {\r\n\r\n        _tokenIdTracker.increment();\r\n        _safeMint(_to, _tokenId);\r\n\r\n        emit welcomeToOlive(_tokenId);\r\n    }\r\n\r\n    function price(uint256 _count) public view returns (uint256) {\r\n        return PRICE.mul(_count);\r\n    }\r\n\r\n    function walletOfOwner(address _owner) external view returns (uint256[] memory) {\r\n        uint256 tokenCount = balanceOf(_owner);\r\n\r\n        uint256[] memory tokensId = new uint256[](tokenCount);\r\n        for (uint256 i = 0; i < tokenCount; i++) {\r\n            tokensId[i] = tokenOfOwnerByIndex(_owner, i);\r\n        }\r\n\r\n        return tokensId;\r\n    }\r\n\r\n    function setPause(bool _pause) public onlyOwner{\r\n        PAUSE = _pause;\r\n        emit PauseEvent(PAUSE);\r\n    }\r\n\r\n    function setPrice(uint256 _price) public onlyOwner{\r\n        PRICE = _price;\r\n        emit NewPriceEvent(PRICE);\r\n    }\r\n\r\n    function setMaxElement(uint256 _max) public onlyOwner{\r\n        MAX_ELEMENTS = _max;\r\n        emit NewMaxElement(MAX_ELEMENTS);\r\n    }\r\n\r\n    function setMetaReveal(bool _reveal, uint256 _from, uint256 _to) public onlyOwner{\r\n        META_REVEAL = _reveal;\r\n        HIDE_FROM = _from;\r\n        HIDE_TO = _to;\r\n    }\r\n\r\n    function withdrawFor(address[] memory _addrs, uint[] memory _values) public onlyOwner {\r\n        uint256 balance = address(this).balance;\r\n        require(balance > 0);\r\n        require(_addrs.length == _values.length);\r\n        address addr;\r\n        uint value;\r\n        for(uint i; i < _addrs.length; i ++) {\r\n            addr = _addrs[i];\r\n            value = _values[i];\r\n            require(value <= 100);\r\n            _widthdraw(addr, balance.mul(value).div(100));\r\n        }\r\n    }\r\n\r\n    function _widthdraw(address _address, uint256 _amount) private {\r\n        (bool success, ) = _address.call{value: _amount}(\"\");\r\n        require(success, \"Transfer failed.\");\r\n    }\r\n\r\n    function giftMint(address[] memory _addrs, uint[] memory _tokenAmounts) public onlyOwner {\r\n        uint totalQuantity = 0;\r\n        uint256 total = totalToken();\r\n        for(uint i = 0; i < _addrs.length; i ++) {\r\n            totalQuantity += _tokenAmounts[i];\r\n        }\r\n        require( total + totalQuantity <= MAX_ELEMENTS, \"Max limit\" );\r\n        for(uint i = 0; i < _addrs.length; i ++){\r\n            for(uint j = 0; j < _tokenAmounts[i]; j ++){\r\n                total ++;\r\n                _mintAnElement(_addrs[i], total);\r\n            }\r\n        }\r\n    }\r\n}",
  "sourcePath": "E:\\project\\m9eTest\\contracts\\OliveNFT.sol",
  "compiler": {
    "name": "solc",
    "version": "0.8.0+commit.c7dfd78e.Emscripten.clang"
  },
  "schemaVersion": "3.4.3",
  "updatedAt": "2021-12-02T01:47:28.741Z",
  "networkType": "ethereum",
  "devdoc": {
    "kind": "dev",
    "methods": {
      "approve(address,uint256)": {
        "details": "See {IERC721-approve}."
      },
      "balanceOf(address)": {
        "details": "See {IERC721-balanceOf}."
      },
      "getApproved(uint256)": {
        "details": "See {IERC721-getApproved}."
      },
      "isApprovedForAll(address,address)": {
        "details": "See {IERC721-isApprovedForAll}."
      },
      "name()": {
        "details": "See {IERC721Metadata-name}."
      },
      "owner()": {
        "details": "Returns the address of the current owner."
      },
      "ownerOf(uint256)": {
        "details": "See {IERC721-ownerOf}."
      },
      "rawOwnerOf(uint256)": {
        "details": "Edit for rawOwnerOf token"
      },
      "renounceOwnership()": {
        "details": "Leaves the contract without owner. It will not be possible to call `onlyOwner` functions anymore. Can only be called by the current owner. NOTE: Renouncing ownership will leave the contract without an owner, thereby removing any functionality that is only available to the owner."
      },
      "safeTransferFrom(address,address,uint256)": {
        "details": "See {IERC721-safeTransferFrom}."
      },
      "safeTransferFrom(address,address,uint256,bytes)": {
        "details": "See {IERC721-safeTransferFrom}."
      },
      "setApprovalForAll(address,bool)": {
        "details": "See {IERC721-setApprovalForAll}."
      },
      "supportsInterface(bytes4)": {
        "details": "See {IERC165-supportsInterface}."
      },
      "symbol()": {
        "details": "See {IERC721Metadata-symbol}."
      },
      "tokenByIndex(uint256)": {
        "details": "See {IERC721Enumerable-tokenByIndex}."
      },
      "tokenOfOwnerByIndex(address,uint256)": {
        "details": "See {IERC721Enumerable-tokenOfOwnerByIndex}."
      },
      "tokenURI(uint256)": {
        "details": "See {IERC721Metadata-tokenURI}."
      },
      "totalSupply()": {
        "details": "See {IERC721Enumerable-totalSupply}."
      },
      "transferFrom(address,address,uint256)": {
        "details": "See {IERC721-transferFrom}."
      },
      "transferOwnership(address)": {
        "details": "Transfers ownership of the contract to a new account (`newOwner`). Can only be called by the current owner."
      }
    },
    "version": 1
  },
  "userdoc": {
    "kind": "user",
    "methods": {},
    "version": 1
  }
}